{
  "contractName": "JPYC_Example",
  "abi": [
    {
      "inputs": [],
      "stateMutability": "nonpayable",
      "type": "constructor"
    },
    {
      "inputs": [],
      "name": "jpyc",
      "outputs": [
        {
          "internalType": "contract IERC20",
          "name": "",
          "type": "address"
        }
      ],
      "stateMutability": "view",
      "type": "function"
    },
    {
      "inputs": [],
      "name": "getname",
      "outputs": [
        {
          "internalType": "string",
          "name": "",
          "type": "string"
        }
      ],
      "stateMutability": "view",
      "type": "function"
    },
    {
      "inputs": [],
      "name": "getsymbol",
      "outputs": [
        {
          "internalType": "string",
          "name": "",
          "type": "string"
        }
      ],
      "stateMutability": "view",
      "type": "function"
    },
    {
      "inputs": [],
      "name": "jpycAmount",
      "outputs": [
        {
          "internalType": "uint256",
          "name": "",
          "type": "uint256"
        }
      ],
      "stateMutability": "view",
      "type": "function"
    },
    {
      "inputs": [],
      "name": "approveJpycFromContract",
      "outputs": [],
      "stateMutability": "nonpayable",
      "type": "function"
    },
    {
      "inputs": [],
      "name": "withdraw_jpyc",
      "outputs": [],
      "stateMutability": "nonpayable",
      "type": "function"
    }
  ],
  "bytecode": "0x608060405234801561001057600080fd5b5033600160006101000a81548173ffffffffffffffffffffffffffffffffffffffff021916908373ffffffffffffffffffffffffffffffffffffffff160217905550736ae7dfc73e0dde2aa99ac063dcf7e8a63265108c6000806101000a81548173ffffffffffffffffffffffffffffffffffffffff021916908373ffffffffffffffffffffffffffffffffffffffff160217905550610b3e806100b56000396000f3fe608060405234801561001057600080fd5b50600436106100625760003560e01c80631c44c0db1461006757806335586ca9146100715780633cd7594c1461007b578063550ed61b14610099578063c6ea59b9146100b7578063d77377d0146100d5575b600080fd5b61006f6100f3565b005b6100796102c9565b005b610083610421565b6040516100909190610895565b60405180910390f35b6100a16104cb565b6040516100ae919061087a565b60405180910390f35b6100bf6104ef565b6040516100cc9190610895565b60405180910390f35b6100dd610599565b6040516100ea91906108b7565b60405180910390f35b600160009054906101000a900473ffffffffffffffffffffffffffffffffffffffff1673ffffffffffffffffffffffffffffffffffffffff163373ffffffffffffffffffffffffffffffffffffffff161461014d57600080fd5b60008054906101000a900473ffffffffffffffffffffffffffffffffffffffff1673ffffffffffffffffffffffffffffffffffffffff166323b872dd30600160009054906101000a900473ffffffffffffffffffffffffffffffffffffffff1660008054906101000a900473ffffffffffffffffffffffffffffffffffffffff1673ffffffffffffffffffffffffffffffffffffffff166370a08231306040518263ffffffff1660e01b815260040161020691906107ff565b60206040518083038186803b15801561021e57600080fd5b505afa158015610232573d6000803e3d6000fd5b505050506040513d601f19601f82011682018060405250810190610256919061076c565b6040518463ffffffff1660e01b81526004016102749392919061081a565b602060405180830381600087803b15801561028e57600080fd5b505af11580156102a2573d6000803e3d6000fd5b505050506040513d601f19601f820116820180604052508101906102c691906106f6565b50565b60008054906101000a900473ffffffffffffffffffffffffffffffffffffffff1673ffffffffffffffffffffffffffffffffffffffff1663095ea7b33060008054906101000a900473ffffffffffffffffffffffffffffffffffffffff1673ffffffffffffffffffffffffffffffffffffffff166370a08231306040518263ffffffff1660e01b815260040161035f91906107ff565b60206040518083038186803b15801561037757600080fd5b505afa15801561038b573d6000803e3d6000fd5b505050506040513d601f19601f820116820180604052508101906103af919061076c565b6040518363ffffffff1660e01b81526004016103cc929190610851565b602060405180830381600087803b1580156103e657600080fd5b505af11580156103fa573d6000803e3d6000fd5b505050506040513d601f19601f8201168201806040525081019061041e91906106f6565b50565b606060008054906101000a900473ffffffffffffffffffffffffffffffffffffffff1673ffffffffffffffffffffffffffffffffffffffff166395d89b416040518163ffffffff1660e01b815260040160006040518083038186803b15801561048957600080fd5b505afa15801561049d573d6000803e3d6000fd5b505050506040513d6000823e3d601f19601f820116820180604052508101906104c69190610723565b905090565b60008054906101000a900473ffffffffffffffffffffffffffffffffffffffff1681565b606060008054906101000a900473ffffffffffffffffffffffffffffffffffffffff1673ffffffffffffffffffffffffffffffffffffffff166306fdde036040518163ffffffff1660e01b815260040160006040518083038186803b15801561055757600080fd5b505afa15801561056b573d6000803e3d6000fd5b505050506040513d6000823e3d601f19601f820116820180604052508101906105949190610723565b905090565b6000670de0b6b3a764000060008054906101000a900473ffffffffffffffffffffffffffffffffffffffff1673ffffffffffffffffffffffffffffffffffffffff166370a08231306040518263ffffffff1660e01b81526004016105fd91906107ff565b60206040518083038186803b15801561061557600080fd5b505afa158015610629573d6000803e3d6000fd5b505050506040513d601f19601f8201168201806040525081019061064d919061076c565b6106579190610944565b905090565b600061066f61066a846108f7565b6108d2565b90508281526020810184848401111561068b5761068a610aba565b5b6106968482856109f3565b509392505050565b6000815190506106ad81610ada565b92915050565b600082601f8301126106c8576106c7610ab5565b5b81516106d884826020860161065c565b91505092915050565b6000815190506106f081610af1565b92915050565b60006020828403121561070c5761070b610ac4565b5b600061071a8482850161069e565b91505092915050565b60006020828403121561073957610738610ac4565b5b600082015167ffffffffffffffff81111561075757610756610abf565b5b610763848285016106b3565b91505092915050565b60006020828403121561078257610781610ac4565b5b6000610790848285016106e1565b91505092915050565b6107a281610975565b82525050565b6107b1816109bd565b82525050565b60006107c282610928565b6107cc8185610933565b93506107dc8185602086016109f3565b6107e581610ac9565b840191505092915050565b6107f9816109b3565b82525050565b60006020820190506108146000830184610799565b92915050565b600060608201905061082f6000830186610799565b61083c6020830185610799565b61084960408301846107f0565b949350505050565b60006040820190506108666000830185610799565b61087360208301846107f0565b9392505050565b600060208201905061088f60008301846107a8565b92915050565b600060208201905081810360008301526108af81846107b7565b905092915050565b60006020820190506108cc60008301846107f0565b92915050565b60006108dc6108ed565b90506108e88282610a26565b919050565b6000604051905090565b600067ffffffffffffffff82111561091257610911610a86565b5b61091b82610ac9565b9050602081019050919050565b600081519050919050565b600082825260208201905092915050565b600061094f826109b3565b915061095a836109b3565b92508261096a57610969610a57565b5b828204905092915050565b600061098082610993565b9050919050565b60008115159050919050565b600073ffffffffffffffffffffffffffffffffffffffff82169050919050565b6000819050919050565b60006109c8826109cf565b9050919050565b60006109da826109e1565b9050919050565b60006109ec82610993565b9050919050565b60005b83811015610a115780820151818401526020810190506109f6565b83811115610a20576000848401525b50505050565b610a2f82610ac9565b810181811067ffffffffffffffff82111715610a4e57610a4d610a86565b5b80604052505050565b7f4e487b7100000000000000000000000000000000000000000000000000000000600052601260045260246000fd5b7f4e487b7100000000000000000000000000000000000000000000000000000000600052604160045260246000fd5b600080fd5b600080fd5b600080fd5b600080fd5b6000601f19601f8301169050919050565b610ae381610987565b8114610aee57600080fd5b50565b610afa816109b3565b8114610b0557600080fd5b5056fea2646970667358221220f68ad0fd2fe4f8d435cf0130bf3bf5a0bcc8114afaaf22d7e1c5a042e92879bc64736f6c63430008070033",
  "immutableReferences": {},
  "source": "// SPDX-License-Identifier: MIT\n//MIT\n\n//\npragma solidity ^0.8.0;\n\n//ERC20\ninterface IERC20 {\n    //\n    function totalSupply() external view returns (uint256);\n    function balanceOf(address account) external view returns (uint256);\n    function transfer(address recipient, uint256 amount) external returns (bool);\n    function allowance(address owner, address spender) external view returns (uint256);\n    function approve(address spender, uint256 amount) external returns (bool);\n    function transferFrom(address sender, address recipient, uint256 amount) external returns (bool);\n    event Transfer(address indexed from, address indexed to, uint256 value);\n    event Approval(address indexed owner, address indexed spender, uint256 value);\n    \n    //\n    function name() external view returns (string memory);\n    function symbol() external view returns (string memory);\n}\n\n\n\ncontract JPYC_Example {\n\n    //ERC20()\n    IERC20 public jpyc;\n\n    //\n    address owner;\n\n    constructor() {\n         //\n         owner = msg.sender;\n         \n         //Ethereum NetworkJPYC\n         //jpyc = IERC20(0x2370f9d504c7a6e775bf6e14b3f12846b594cd53); \n         \n         //Polygon Network(matic)JPYC\n         jpyc = IERC20(0x6AE7Dfc73E0dDE2aa99ac063DcF7e8A63265108c);\n         \n         //xDai NetworkJPYC\n         //jpyc = IERC20(0x417602f4fbdd471A431Ae29fB5fe0A681964C11b);  \n    } \n\n    //\n    function getname() public view returns (string memory){\n        return jpyc.name();\n    }\n\n    //(JPYC)\n    function getsymbol() public view returns (string memory){\n        return jpyc.symbol();\n    }\n\n    //\n    function jpycAmount() public view returns (uint) {\n        return jpyc.balanceOf(address(this)) / 10 ** 18;\n    }\n\n    //\n    function approveJpycFromContract() public {\n        jpyc.approve( address(this) , jpyc.balanceOf(address(this)) );\n    }\n\n    //\n    function withdraw_jpyc() public {\n        //require\n        require(msg.sender == owner);\n        jpyc.transferFrom(address(this) , owner , jpyc.balanceOf(address(this)) );\n    }\n    \n}\n",
  "sourcePath": "/app/src/contracts/savings_box.sol",
  "compiler": {
    "name": "solc",
    "version": "0.8.7+commit.e28d00a7.Emscripten.clang"
  },
  "schemaVersion": "3.4.3",
  "updatedAt": "2021-08-28T15:30:05.677Z",
  "devdoc": {
    "kind": "dev",
    "methods": {},
    "version": 1
  },
  "userdoc": {
    "kind": "user",
    "methods": {},
    "version": 1
  }
}